:0400000002001132B7
:03000B000200767A
:0C006A00750800750958750A1402000E94
:03000E0002009D50
:20007600C0E0C0D0150974FFB50902150AE509450A700FE508B40100E433F508750958750D
:200096000A14D0D0D0E032758903758A00758C00D28CD2A9D2AFE50860057590FF80F7750D
:0400B600900080F244
:06004000E478FFF6D8FD94
:20001E007900E94400601B7A009000BE780175A000E493F2A308B8000205A0D9F4DAF275CA
:02003E00A0FF21
:200046007800E84400600A790175A000E4F309D8FC7800E84400600C7900900001E4F0A3B8
:04006600D8FCD9FAEF
:0D00110075810A1200BAE582600302000E3C
:0400BA007582002229
:00000001FF
